:100000000C9434000C9451000C9451000C94510049
:100010000C9451000C9451000C9451000C9451001C
:100020000C9451000C9451000C9451000C9451000C
:100030000C9451000C9451000C9451000C945100FC
:100040000C9451000C9451000C9451000C945100EC
:100050000C9451000C94C3000C9451000C9451006A
:100060000C9451000C94510011241FBECFEFD8E026
:10007000DEBFCDBF11E0A0E0B1E0E8E3F2E002C0F6
:1000800005900D92A430B107D9F721E0A4E0B1E0CA
:1000900001C01D92A930B207E1F70E9471000C94D3
:1000A0001A010C940000ECE7F0E01082808180647B
:1000B000808380818F778083808180628083EAE77C
:1000C000F0E01082808180688083808188608083F6
:1000D000808187608083EEE7F0E0808187608083A5
:1000E0000895F89484B1866084B98AB180628AB92F
:1000F0001BB817B8E0E8F0E08081806A80838081D7
:1001000082608083E1E8F0E0808188618083808183
:10011000826080838FE39CE99093870080938600C0
:10012000109207011092060188EE93E0909303016C
:100130008093020190938B0080938A0010920501B6
:100140001092040190930101809300019093890023
:10015000809388008AB180668AB914BC15BC84B5C6
:10016000836B84BD85E085BD0E9453007894EAE7E7
:10017000F0E08081806480838FE39FE10197F1F755
:1001800000C00000F4CF1F920F920FB60F921124FF
:100190002F938F939F93EF93FF93EAE7F0E0808193
:1001A0008061808380910801811115C0ECE7F0E047
:1001B0008081807F80838091790020E1829FC001CF
:1001C000112488519C4F90938B0080938A0081E08A
:1001D0008093080125C08130B1F4ECE7F0E0808124
:1001E000807F816080838091790020E1829FC001BF
:1001F000112488519C4F909389008093880082E05D
:10020000809308010DC0823059F4ECE7F0E0808162
:10021000807F826080838091790088BD1092080180
:10022000FF91EF919F918F912F910F900FBE0F90A3
:080230001F901895F894FFCF10
:04023800E803E803EC
:00000001FF
