S011000050726F796563746F322E737265638C
S11300000C9434000C9451000C9451000C94510045
S11300100C94D3000C9451000C9451000C94510096
S11300200C9451000C9451000C9451000C94510008
S11300300C9451000C9451000C9451000C945100F8
S11300400C9451000C9451000C9451000C945100E8
S11300500C9451000C9451000C9451000C945100D8
S11300600C9451000C94510011241FBECFEFD8E022
S1130070DEBFCDBF11E0A0E0B1E0E0E2F5E102C0F7
S113008005900D92AA31B107D9F721E0AAE1B1E0B8
S113009001C01D92A634B207E1F70E944A020C94F3
S11300A08E0A0C94000085B5877F85BD84B5826077
S11300B084BD84B5816084BD85B58B7F85BD85B5E0
S11300C0826085BD85B5816085BD0895613039F450
S11300D094B5906894BD94B59F7B94BD06C094B5C7
S11300E0906894BD94B5906494BD2FEF829FC00135
S11300F0112464E670E00E94660767BD08956130CC
S113010039F494B5906294BD94B59F7E94BD06C0B5
S113011094B5906294BD94B5906194BD2FEF829F85
S1130120C001112464E670E00E94660768BD08956A
S1130130ECE7F0E080818064808380818F77808326
S113014080818F7D8083EAE7F0E08081876080830F
S113015080818068808387B18F7E87B988B180630E
S113016088B987B18F7D87B9E8E6F0E08081826045
S11301708083ECE6F0E08081806380830895ECE77F
S1130180F0E09081907F892B8083EAE7F0E0808122
S11301908064808380917A0086FDFCCF8091780012
S11301A09091790008951F920F920FB60F92112427
S11301B08F939F938FE39CE90197F1F700C00000B0
S11301C034990BC0809122018F5F8093220180912A
S11301D02201843010F01092220135992BC08091B5
S11301E02201813091F4359B25C080911A019091B0
S11301F01B010A9690931B0180931A0181E090E001
S113020090931F0180931E0115C0809122018230BA
S113021089F4359B09C080911A0190911B010A96BB
S113022090931B0180931A0181E090E090931D014B
S113023080931C019F918F910F900FBE0F901F9080
S113024018958AB18E7F8AB98AB182608AB9E0EC46
S1130250F0E01082808182608083E1ECF0E0108223
S1130260808188698083E2ECF0E01082808186607E
S113027080838FEC90E09093C5008093C400089530
S1130280AC0120E007C09091C00095FFFCCF3093F3
S1130290C6002F5FFA01E20FF11D30813111F3CF57
S11302A00895AF92BF92CF92DF92EF92FF920F9395
S11302B01F93CF9380E00E94BF00BC0180E090E0D8
S11302C00E9442066093370170933801809339018C
S11302D090933A010E94C4048FE39CE90197F1F7DB
S11302E000C0000081E00E94BF00BC0180E090E0FB
S11302F00E94420660933301709334018093350168
S1130300909336010E94F6048FE39CE90197F1F77C
S113031000C0000082E00E94BF00BC0180E090E0C9
S11303200E94420660932F01709330018093310143
S11303309093320183E00E94BF00BC0180E090E012
S11303400E94420660932B0170932C0180932D012F
S113035090932E0160912F017091300180913101B1
S113036090913201C2E4CF9326E92F931F921F92FA
S1130370A12CB12C6501E12C10ECF12E0FE714E453
S113038020E030E040E054E40E94650460932701DB
S1130390709328018093290190932A0160912B0185
S11303A070912C0180912D0190912E01CF9328E41E
S11303B02F931F921F9220E030E04AEF53E40E94F3
S11303C06504609323017093240180932501909325
S11303D0260160912F01709130018091310190913B
S11303E032012DB73EB7285F3F4F0FB6F8943EBF9A
S11303F00FBE2DBF20E030E042E054E40E94F4063A
S113040088239CF060912701709128018091290133
S113041090912A010E941306862F61E00E946600D3
S113042061E080E00E947F002BC060912B017091FD
S11304302C0180912D0190912E0120E030E04AEFB3
S113044053E40E94950518169CF061E080E00E9438
S1130450660060912301709124018091250190919F
S113046026010E941306862F61E00E947F0008C0C7
S113047061E080E00E94660061E080E00E947F000D
S1130480CF911F910F91FF90EF90DF90CF90BF908D
S1130490AF900895F8948FEF8AB90E9449040E949E
S11304A053000E9498000E942101789480912201B7
S11304B08130A1F038F0823009F4DAC0833009F4D5
S11304C0DEC1F4CF85B1806185B985B1877F85B9F7
S11304D085B18F7D85B90E945101E8CF85B18862CD
S11304E085B985B18F7E85B90E94510180911E0125
S11304F090911F010197D1F66091370170913801F5
S11305008091390190913A010F2EF3E48F2EF02D52
S11305108F920F2EFFE79F2EF02D9F921F921F9216
S1130520A12CB12C6501E12C10ECF12E0FE714E4A1
S1130530A60195010E946504609337017093380108
S11305408093390190933A01C0911A01D0911B0113
S11305500E941306CE010E94490A8FE19EE401978E
S1130560F1F700C00000C0911A01D0911B0121963F
S1130570609133017091340180913501909136017D
S11305808F929F921F921F92A60195010E9465046B
S11305906093330170933401809335019093360155
S11305A00E941306CE010E94490A8FE19EE401973E
S11305B0F1F700C00000C0911A01D0911B012296EE
S11305C060912F017091300180913101909132013D
S11305D00F2EF2E49F2EF02D9F9226E92F931F9267
S11305E01F92A60195010E94650460932F017093E8
S11305F0300180933101909332010E941306CE01A1
S11306000E94490A8FE19EE40197F1F700C00000BF
S1130610C0911A01D0911B01239660912B01709116
S11306202C0180912D0190912E019F9228E42F930B
S11306301F921F92A60195010E94650460932B01ED
S113064070932C0180932D0190932E010E94130628
S1130650CE010E94490A10921F0110921E018DB70B
S11306609EB740960FB6F8949EBF0FBE8DBF1ECFA7
S113067085B1886185B985B18F7D85B980911C016B
S113068090911D01019709F0CEC080911A019091BB
S11306901B010E94410A682F70E07093210160934E
S11306A02001072E000C880B990B0E9444060F2E84
S11306B0F4E49F2EF02D9F92DFE7DF93C0ECCF93FD
S11306C01F92A12CB12C6501E12CF12C0FE713E44E
S11306D0A60195010E9465040E940C0670932101F5
S11306E060932001072E000C880B990B0E9444068E
S11306F00E94C4048FE19EE40197F1F700C000005A
S113070080911A0190911B0101960E94410A682F61
S113071070E07093210160932001072E000C880B78
S1130720990B0E9444069F92DF93CF931F92A601D8
S113073095010E9465040E940C0670932101609348
S11307402001072E000C880B990B0E9444060E947E
S1130750F6048FE19EE40197F1F700C00000809158
S11307601A0190911B0102960E94410A682F70E0C1
S11307707093210160932001072E000C880B990BC4
S11307800E944406C2E4CF9326E92F931F921F923E
S1130790A60195010E9465040E940C06862F6093B1
S11307A020017093210161E00E9466008FE19EE4C4
S11307B00197F1F700C0000080911A0190911B018C
S11307C00E94410A682F70E0709321016093200118
S11307D0072E000C880B990B0E944406CF9328E443
S11307E02F931F921F92A60195010E9465040E94F7
S11307F00C06862F609320017093210161E00E9412
S11308007F008FE19EE40197F1F700C00000109291
S11308101D0110921C018DB79EB740960FB6F89437
S11308209EBF0FBE8DBF809121018F9380912001C7
S11308308F9380E091E09F938F938CE391E09F935B
S11308408F930E948E0783E091E00E9440018CE325
S113085091E00E94400187E191E00E9440019FEFF6
S113086023ED80E3915020408040E1F700C0000078
S11308700F900F900F900F900F900F9017CE85B19F
S1130880806285B985B1877F85B985B18F7E85B949
S11308900DCE84B1866084B91092850010928400D4
S11308A08FE39CE99093870080938600E0E8F0E072
S11308B080EA8083808182608083E1E8F0E088E1DF
S11308C0808380818260808308954F925F926F92CB
S11308D07F92AF92BF92CF92DF92EF92FF920F93EB
S11308E01F93CF93DF93CDB7DEB728970FB6F89455
S11308F0DEBF0FBECDBF29013A01ED82FE820F8318
S113090018870E94280569837A838B839C83A601B8
S11309109501698D7A8D8B8D9C8D0E9428059B0194
S1130920AC0169817A818B819C810E94F90669837B
S11309307A838B839C83A3019201C801B7010E942F
S113094028059B01AC0169817A818B819C810E947D
S11309509A059B01AC01C601B5010E9429052896A0
S11309600FB6F894DEBF0FBECDBFDF91CF911F91BC
S11309700F91FF90EF90DF90CF90BF90AF907F905A
S11309806F905F904F900895AF92BF92CF92DF9295
S1130990EF92FF920F931F9325E42F9326E92F9351
S11309A01F921F920F2EA12CB12CFAE7CF2EF4E444
S11309B0DF2EF02DE12CF12C00E814E420E030E0EF
S11309C0A9010E9465040F900F900F900F900E9450
S11309D0130670938900609388001F910F91FF9014
S11309E0EF90DF90CF90BF90AF900895AF92BF92F9
S11309F0CF92DF92EF92FF920F931F9325E42F93F0
S1130A0026E92F931F921F920F2EA12CB12CFAE7E7
S1130A10CF2EF4E4DF2EF02DE12CF12C00E814E4C9
S1130A2020E030E0A9010E9465040F900F900F9020
S1130A300F900E94130670938B0060938A001F919D
S1130A400F91FF90EF90DF90CF90BF90AF900895FB
S1130A505058BB27AA270E9440050C94BA060E944E
S1130A60AC0638F00E94B30620F039F49F3F19F425
S1130A7026F40C94A9060EF4E095E7FB0C94A30667
S1130A80E92F0E94CB0658F3BA176207730784074D
S1130A90950720F079F4A6F50C94ED060EF4E09594
S1130AA00B2EBA2FA02D0B01B90190010C01CA0124
S1130AB0A0011124FF27591B99F0593F50F4503ECF
S1130AC068F11A16F040A22F232F342F4427585FC1
S1130AD0F3CF469537952795A795F0405395C9F7D9
S1130AE07EF41F16BA0B620B730B840BBAF0915091
S1130AF0A1F0FF0FBB1F661F771F881FC2F70EC030
S1130B00BA0F621F731F841F48F487957795679502
S1130B10B795F7959E3F08F0B0CF9395880F08F0EE
S1130B209927EE0F9795879508950E947F0608F4FC
S1130B3081E008950E94AE050C94BA060E94B306A3
S1130B4058F00E94AC0640F029F45F3F29F00C9461
S1130B50A30651110C94EE060C94A9060E94CB0630
S1130B6068F39923B1F3552391F3951B550BBB27D8
S1130B70AA2762177307840738F09F5F5F4F220F1D
S1130B80331F441FAA1FA9F335D00E2E3AF0E0E814
S1130B9032D091505040E695001CCAF72BD0FE2F5E
S1130BA029D0660F771F881FBB1F261737074807F2
S1130BB0AB07B0E809F0BB0B802DBF01FF279358AA
S1130BC05F4F3AF09E3F510578F00C94A3060C94C5
S1130BD0EE065F3FE4F3983ED4F3869577956795E8
S1130BE0B795F7959F5FC9F7880F911D96958795DF
S1130BF097F90895E1E0660F771F881FBB1F6217FE
S1130C0073078407BA0720F0621B730B840BBA0BBB
S1130C10EE1F88F7E09508950E9413066894B111B9
S1130C200C94EE0608950E94D30688F09F5798F01E
S1130C30B92F9927B751B0F0E1F0660F771F881FDD
S1130C40991F1AF0BA95C9F714C0B13091F00E94F7
S1130C50ED06B1E008950C94ED06672F782F8827F0
S1130C60B85F39F0B93FCCF3869577956795B3951E
S1130C70D9F73EF490958095709561957F4F8F4F8D
S1130C809F4F0895E89409C097FB3EF49095809592
S1130C90709561957F4F8F4F9F4F9923A9F0F92F3E
S1130CA096E9BB279395F695879577956795B795BC
S1130CB0F111F8CFFAF4BB0F11F460FF1BC06F5FA2
S1130CC07F4F8F4F9F4F16C0882311F096E911C0B4
S1130CD0772321F09EE8872F762F05C0662371F0D5
S1130CE096E8862F70E060E02AF09A95660F771FE9
S1130CF0881FDAF7880F9695879597F90895990FC5
S1130D000008550FAA0BE0E8FEEF16161706E807D1
S1130D10F907C0F012161306E407F50798F0621BF2
S1130D20730B840B950B39F40A2661F0232B242BC7
S1130D30252B21F408950A2609F4A140A6958FEFE6
S1130D40811D811D089597F99F6780E870E060E038
S1130D5008959FEF80EC089500240A941616170650
S1130D6018060906089500240A9412161306140698
S1130D7005060895092E0394000C11F4882352F0FB
S1130D80BB0F40F4BF2B11F460FF04C06F5F7F4FB3
S1130D908F4F9F4F089557FD9058440F551F59F09A
S1130DA05F3F71F04795880F97FB991F61F09F3F54
S1130DB079F087950895121613061406551FF2CF7D
S1130DC04695F1DF08C0161617061806991FF1CFCD
S1130DD086957105610508940895E894BB276627F4
S1130DE07727CB0197F908950E947F0608F48FEFC7
S1130DF008950E940C070C94BA060E94AC0638F0C1
S1130E000E94B30620F0952311F00C94A3060C94D1
S1130E10A90611240C94EE060E94CB0670F3959F4C
S1130E20C1F3950F50E0551F629FF001729FBB27DD
S1130E30F00DB11D639FAA27F00DB11DAA1F649F79
S1130E406627B00DA11D661F829F2227B00DA11D2C
S1130E50621F739FB00DA11D621F839FA00D611DB2
S1130E60221F749F3327A00D611D231F849F600DD3
S1130E70211D822F762F6A2F11249F5750409AF0FC
S1130E80F1F088234AF0EE0FFF1FBB1F661F771F88
S1130E90881F91505040A9F79E3F510580F00C9453
S1130EA0A3060C94EE065F3FE4F3983ED4F38695D4
S1130EB077956795B795F795E7959F5FC1F7FE2BF3
S1130EC0880F911D9695879597F9089597FB072E9E
S1130ED016F4009407D077FD09D00E947A0707FC26
S1130EE005D03EF4909581959F4F08957095619536
S1130EF07F4F0895AA1BBB1B51E107C0AA1FBB1F4C
S1130F00A617B70710F0A61BB70B881F991F5A9591
S1130F10A9F780959095BC01CD010895AEE0B0E0AD
S1130F20E4E9F7E00C94650A0D891E8986E08C8358
S1130F301A8309838FEF9FE79E838D83AE01475EFB
S1130F405F4F6F89788DCE0101960E94B007EF81C3
S1130F50F885E00FF11F10822E96E4E00C94810ACC
S1130F60ABE0B0E0E6EBF7E00C94570A6C017B01D0
S1130F708A01FC0117821682838181FFCCC1CE01D4
S1130F8001963C01F6019381F70193FD859193FF4E
S1130F9081917F01882309F4BAC1853239F493FD24
S1130FA0859193FF81917F01853229F4B60190E008
S1130FB00E94A709E7CF912C212C312CFFE1F315D6
S1130FC0D8F08B3279F038F4803279F08332A1F49E
S1130FD0232D20611DC08D3261F0803369F4232DEF
S1130FE0216016C0832D8260382EE32DE4603E2EEE
S1130FF02AC0F32DF8601DC037FC2DC020ED280F4A
S11310002A3040F08E32B9F436FC81C1232D20649D
S1131010322E19C036FE06C08AE0989E200D112497
S1131020922E11C0EAE02E9E200D1124222EF32DC3
S1131030F0623F2E08C08C3621F4832D8068382E50
S113104002C0883641F4F70193FD859193FF8191A5
S11310507F018111B3CF982F9F7D9554933028F44D
S11310600C5F1F4F9FE399830DC0833631F08337A4
S113107071F0833509F059C021C0F801808189835A
S11310800E5F1F4F88248394912C530113C02801B1
S1131090F2E04F0E511CF801A080B18036FE03C06F
S11310A0692D70E002C06FEF7FEFC5010E949C09BB
S11310B04C018201F32DFF773F2E16C0280122E058
S11310C0420E511CF801A080B18036FE03C0692D88
S11310D070E002C06FEF7FEFC5010E9491094C01DF
S11310E0F32DF0683F2E820133FC1BC0822D90E06B
S11310F088169906B0F4B60180E290E00E94A70930
S11311002A94F4CFF50137FC859137FE81915F0174
S1131110B60190E00E94A70921102A9421E0821AC6
S113112091088114910471F7E8C0843611F089366E
S113113041F5F80137FE07C0608171818281938196
S11311400C5F1F4F08C060817181072E000C880B53
S1131150990B0E5F1F4FF32DFF763F2E97FF09C0AB
S113116090958095709561957F4F8F4F9F4FF06854
S11311703F2E2AE030E0A3010E94E309882E86185E
S113118045C0853731F4232D2F7EB22E2AE030E07E
S113119025C0932D997FB92E8F36C1F018F4883568
S11311A079F0B5C0803719F0883721F0B0C0E92F45
S11311B0E061BE2EB4FE0DC0FB2DF460BF2E09C04D
S11311C034FE0AC0292F2660B22E06C028E030E083
S11311D005C020E130E002C020E132E0F801B7FEB2
S11311E007C060817181828193810C5F1F4F06C0AB
S11311F06081718180E090E00E5F1F4FA3010E9427
S1131200E309882E8618FB2DFF773F2E36FE0DC08E
S1131210232D2E7FA22E891458F434FE0BC032FCE9
S113122009C0832D8E7EA82E05C0B82CA32C03C024
S1131230B82C01C0B92CA4FE0FC0FE01E80DF11DAD
S11312408081803321F49A2D997EA92E09C0A2FEB3
S113125006C0B394B39404C08A2D867809F0B3947D
S1131260A3FC11C0A0FE06C0B21488F4280C922C72
S11312709B180EC0B21460F4B60180E290E00E94A4
S1131280A709B394F7CFB21418F42B1802C0982C02
S1131290212CA4FE10C0B60180E390E00E94A709AF
S11312A0A2FE17C0A1FC03C088E790E002C088E555
S11312B090E0B6010CC08A2D867859F0A1FE02C0D8
S11312C08BE201C080E2A7FC8DE2B60190E00E94AF
S11312D0A709891438F4B60180E390E00E94A709B5
S11312E09A94F7CF8A94F301E80DF11D8081B60139
S11312F090E00E94A7098110F5CF222009F442CE84
S1131300B60180E290E00E94A7092A94F6CFF60184
S11313108681978102C08FEF9FEF2B96E2E10C94B8
S1131320730AFC010590615070400110D8F7809554
S113133090958E0F9F1F0895FC016150704001909D
S11313400110D8F7809590958E0F9F1F08950F93E5
S11313501F93CF93DF93FB01238121FD03C08FEF04
S11313609FEF2CC022FF16C046815781248135810E
S11313704217530744F4A081B1819D012F5F3F4F71
S1131380318320838C93268137812F5F3F4F3783AE
S1131390268314C08B01EC01FB010084F185E02D50
S11313A00995892BE1F6D80116968D919C91179792
S11313B0019617969C938E931697CE01DF91CF9149
S11313C01F910F910895FA01AA27283051F1203175
S11313D081F1E8946F936E7F6E5F7F4F8F4F9F4FC5
S11313E0AF4FB1E03ED0B4E03CD0670F781F891F07
S11313F09A1FA11D680F791F8A1F911DA11D6A0FD5
S1131400711D811D911DA11D20D009F468943F9187
S11314102AE0269F11243019305D3193DEF6CF0186
S11314200895462F4770405D4193B3E00FD0C9F74C
S1131430F6CF462F4F70405D4A3318F0495D31FDB9
S11314404052419302D0A9F7EACFB4E0A69597950C
S1131450879577956795BA95C9F7009761057105E2
S113146008959B01AC010A2E06945795479537952C
S11314702795BA95C9F7620F731F841F951FA01D86
S11314800895F999FECF92BD81BDF89A992780B548
S11314900895262FF999FECF1FBA92BD81BD20BDB4
S11314A00FB6F894FA9AF99A0FBE019608952F92FE
S11314B03F924F925F926F927F928F929F92AF92E0
S11314C0BF92CF92DF92EF92FF920F931F93CF932D
S11314D0DF93CDB7DEB7CA1BDB0B0FB6F894DEBFC4
S11314E00FBECDBF09942A88398848885F846E84EA
S11314F07D848C849B84AA84B984C884DF80EE8034
S1131500FD800C811B81AA81B981CE0FD11D0FB63C
S1131510F894DEBF0FBECDBFED010895F894FFCF60
S113152025640056616C6F7220646520766172696F
S10D153061626C653A20000A0000B5
S9030000FC
