:020000020000FC
:100000000FEF0DBF18E01EBF40E84093610044E0D1
:10001000409361000CE304B910E00FE007B940E041
:100020000BEF0AB950E019990E94230018990E9419
:100030002C0035990E94350034990E943A004A9963
:100040000E944800F0CF0E943F0016951695139528
:10005000110F110F15B9E7CF0E943F0016951695A5
:100060001A95110F110F15B9DECF0E943F0043956D
:1000700048B9D9CF0E943F004A9548B9D4CF20E073
:1000800030E023952030E9F733953030D1F70895EB
:100090000E943F00512F540F550F550F550F5BB95C
:0200A000C2CFCD
:00000001FF
