S01400004C61626F7261746F72696F342E737265635E
S11300000C9434000C9451000C9451000C94510045
S11300100C94E5000C9451000C9451000C94510084
S11300200C9451000C9451000C9451000C94510008
S11300300C9451000C9451000C9451000C945100F8
S11300400C9451000C9451000C9451000C945100E8
S11300500C9451000C94D0000C9451000C94510059
S11300600C9451000C94510011241FBECFEFD8E022
S1130070DEBFCDBF11E0A0E0B1E0E4E0F2E002C0F9
S113008005900D92A031B107D9F721E0A0E1B1E0CC
S113009001C01D92A131B207E1F70E947C000C94CB
S11300A000010C940000E8E6F0E080818260808327
S11300B0ECE6F0E08081836080830895ECE7F0E073
S11300C0108280818064808380818F7780838081A7
S11300D080628083EAE7F0E0108280818068808318
S11300E0808188608083808187608083EEE7F0E090
S11300F08081846080830895F8948FEF8AB91BB857
S11301001092C10084B1876084B915B885B182604A
S113011085B988B1836088B987B187B90E945300D3
S11301200E945E007894EAE7F0E080818064808336
S11301308FE19EE40197F1F700C00000E09179009F
S1130140AE2FA295AF70EF7015B885B1816085B9F7
S113015085B185B9B0E0A050BF4F8C918BB98FE1C8
S11301609EE40197F1F700C0000015B885B18260E4
S113017085B985B185B9F0E0E050FF4F80818BB936
S113018015B885B1846085B985B185B980911001B0
S11301908BB98FE19EE40197F1F700C00000C3CF53
S11301A01F920F920FB60F9211248F93EF93FF9328
S11301B0EAE7F0E0808184608083FF91EF918F9182
S11301C00F900FBE0F901F9018951F920F920FB6AD
S11301D00F9211248F93309906C0809110018F5F84
S11301E08093100107C0319905C08091100181509E
S11301F0809310018F910F900FBE0F901F90189550
S1070200F894FFCF9C
S11302043F065B4F666D7D077F6F777C395E79713E
S9030000FC
