:100000000C9434000C9451000C9451000C94510049
:100010000C9451000C9451000C9451000C9451001C
:100020000C9451000C9451000C9451000C9451000C
:100030000C9451000C9451000C9451000C945100FC
:100040000C9451000C9451000C9408010C94510034
:100050000C9451000C9451000C9451000C945100DC
:100060000C9451000C94510011241FBECFEFD8E026
:10007000DEBFCDBF11E0A0E0B1E0E8EAF2E002C0EF
:1000800005900D92A835B107D9F721E0A8E5B1E0B8
:1000900001C01D92AD35B207E1F70E94AB000C9490
:1000A00052010C9400008AB18E7F8AB98AB18260B5
:1000B0008AB9E0ECF0E01082808182608083E1EC1C
:1000C000F0E01082808188698083E2ECF0E01082A9
:1000D0008081866080838FEC90E09093C500809350
:1000E000C4000895ECE7F0E0808180648083808123
:1000F0008F77808380818F7D8083EAE7F0E0808145
:10010000876080838081806880830895ECE7F0E0D9
:100110009081907F892B8083EAE7F0E08081806482
:10012000808380917A0086FDFCCF80917800909149
:1001300079000895AC0120E007C09091C00095FFC0
:10014000FCCF3093C6002F5FFA01E20FF11D308122
:100150003111F3CF08950E9453000E9472007894E9
:100160008FEF84B98AB985B98BB92FEF33ED80E36E
:10017000215030408040E1F700C0000080915801DC
:100180009091590181309105C1F08230910591F132
:10019000892BA1F780E091E00E949A008BE191E029
:1001A0000E949A009AEA26EE36E981E091502040BA
:1001B00030408040D9F70000E1CF8DE291E00E940D
:1001C0009A0080E00E94860080935A0190935B0120
:1001D00085B980915A018BB99FEF23ED30E391509F
:1001E00020403040E1F700C0000010925901109209
:1001F0005801C4CF89E491E00E949A008FEF93EDFB
:1002000020E3815090402040E1F700C00000B6CFCD
:100210001F920F920FB60F9211248F939F9380918C
:10022000C60080935C018091C00085FFFCCF809167
:100230005C018093C600809158019091590100970C
:1002400019F00297B1F027C080915C01813339F435
:1002500081E090E090935901809358010AC0809109
:100260005C01823331F482E090E0909359018093F5
:10027000580180915C018093C60080915C0185B932
:1002800080915C018BB980915C01803321F41092E4
:100290005901109258019F918F910F900FBE0F90AE
:0802A0001F901895F894FFCFA0
:1002A800312E204C65657220656C20506F74656E28
:1002B80063696F6D6574726F200A00322E20456E77
:1002C80076696172204153434949200A0056616C9E
:1002D8006F722064656C20706F74656E63696F6DF2
:1002E8006574726F3A200A20004D6F7374726172E0
:0802F8002041534349490A006B
:00000001FF
