:020000020000FC
:040000000C942E002E
:100040000C945D000FEF0DBF18E01EBF3F065B4F25
:10005000666D7D077F6F777C395E79710CEF0AB929
:1000600001E004B950E0F0E0ECE4E50F54910E94A7
:10007000550040E050E078944336F1F744270E9461
:100080004600539554FD50E00C943C006627289898
:10009000652FF0E0ECE4E60F649166FD289A66FFB8
:1000A0002898660F660F6BB9089505E005BD03E655
:1000B00006BD01E000936E00089503E606BDA89A10
:0400C00043951895B7
:00000001FF
