:020000020000FC
:040000000C9422003A
:040010000C948B03BE
:100040000C9480030FEF0DBF18E01EBF3F065B4FFF
:10005000666D7D077F6F765E776D00E00093C1006F
:10006000EE27E0E0F0E0ECE4E50FE4910FE100932F
:100070006C0002E0009368000FEF0AB90FE204B9C8
:10008000409A3898419A3998429A3A98439A3B98BC
:10009000449A3C980E947803789410E020E040E075
:1000A00060E070E0A0E0E0E030E050E080E0B0E050
:1000B000D0E070E0E0E00E2EE0E01E2EE0E02E2E1C
:1000C000E0E03E2E20FF0C9467000C94710021FFAD
:1000D0000C946C000C94850022FF0C9476000C9418
:1000E000970021FF0C947B000C948F0023FF0C944D
:1000F000AE000C94590122FF0C9480000C949A00DD
:1001000023FF0C94E5000C94660122FF0C948A00F6
:100110000C949F0023FF0C94F3000C94680122FFC1
:100120000C9494000C94A40023FF0C94010123FF71
:100130000C94180123FF0C9422010C94620023FFFD
:100140000C9431010C949A0023FF0C944E010C94F2
:10015000620020FF0C9467000C9471003AE00E944A
:10016000F3023327352F0E940D033327382F0E94C7
:10017000260333273B2F0E94400333273D2F0E9445
:100180005E03423331F744274F9A5F9BA0E05F99AB
:10019000A0E873957837E9F6772753955A30C9F672
:1001A000552783958630A9F68827B395BA3089F606
:1001B000BB27D395D23069F6DD27D0E00C946200DE
:1001C00020FF0C9467000C9471005F9A3AE00E9443
:1001D000F3023327352F0E940D033327382F0E9457
:1001E00026030C9462004F9A3AE00E94F3023327F0
:1001F0003B2F0E94400333273D2F0E945E030C9447
:1002000062003BE00E94F30230E04233D1F7442722
:100210004F9A5F9BA0E05F99A0E830E00E940D0339
:100220000E9426030E9440030E945E030C94620019
:100230003BE00E94F30230E00E940D030E9426037F
:100240000C9462003BE00E94F30230E00E94400305
:100250000E945E030C94620020FF0C9467000C94D3
:1002600071003CE00E94F3023327302D0E940D0301
:100270003327312D0E9426033327322D0E9440035D
:100280003327332D0E945E03423359F744274F9A98
:100290005F9BA0E05F99A0E80C9462003CE00E94A4
:1002A000F302302D0E940D03312D0E9426030C9481
:1002B00062003CE00E94F3023327322D0E9440038B
:1002C000332D0E945E034F9A0C9462000C946200DE
:1002D000E0E0FE120C94E2021D9A0C94620021FFF1
:1002E0000C9474010C948D0122FF0C947E010C94EB
:1002F000A10121FF0C9483010C94970123FF0C941E
:10030000B5010C94C80222FF0C9488010C94A6013C
:1003100023FF0C94E1010C94D80222FF0C9492016B
:100320000C94AB0123FF0C9420020C94ED0222FFED
:100330000C949C010C94B00123FF0C9430020C949B
:10034000930323FF0C944B020C94930323FF0C9410
:1003500056020C94930323FF0C945C020C94A601A8
:1003600023FF0C9488020C94930316B113FF21E031
:1003700016B112FF23E00C949303E9E0E5130C940B
:10038000C9015527E5E08E130C94CC0188270C9405
:10039000930353950C94930383950C949303E0E09B
:1003A000E5130C94DB0159E0E0E08E130C94DE01C0
:1003B00085E00C9493035A950C9493038A950C94BE
:1003C000930316B113FF22E016B114FF20E016B11B
:1003D00010FF0C94BD0116B111FF0C94CF010C94C9
:1003E0009303E2E0ED130C94FD01E3E0EB130C94B6
:1003F000FD01BB27DD270C949303E9E0EB130C947C
:100400000802BB27E2E08E130C940B020C949303BA
:10041000B3950C949303D3950C949303E0E0EB1302
:100420000C941A02B3E0E0E0DE130C941D02D2E05B
:100430000C949303BA950C949303DA950C9493035C
:1004400016B114FF20E016B1309B0C94F10116B1E7
:10045000319B0C940E0216B1339B20E00C94930355
:1004600016B1339B24E0329B26E00C949303E9E021
:10047000952E9E120C944502E3E0A82E8E130C9448
:100480004802AA2499240C94930393940C94930304
:10049000A3940C94930316B1339B25E016B1309BC3
:1004A0000C943702349B23E00C949303349B23E099
:1004B000339B23E00C949303339B27E0329B20E093
:1004C0000C949303E9E0E0110C946E020024E5E043
:1004D0001E120C94710211240C94930303940C9437
:1004E000930313940C949303E0E0E0110C948202C4
:1004F000E9E00E2EE0E01E120C948502E5E01E2ECF
:100500000C9493030A940C9493031A940C949303FD
:10051000339B28E016B110FF0C94620216B111FF54
:100520000C94740216B114FF20E00C949303E2E0E3
:10053000E3110C94A302E3E0E2110C94A302222441
:1005400033240C949303E9E0E2110C94AE022224CC
:10055000E2E03E120C94B1020C94930323940C94A9
:10056000930333940C949303E0E0E2110C94C202E1
:10057000E3E02E2EE0E03E120C94C502E2E03E2EB7
:100580000C9493032A940C9493033A940C9493033D
:10059000349B29E0339B27E016B110FF0C9497029F
:1005A00016B111FF0C94B402522C632C0C949303DB
:1005B00016B1349B0C94E20220E0E1E0FE2E0C9494
:1005C000930308955516E9F76816D9F72B16C9F75E
:1005D0003D16B9F72AE00C94620016B1349B81FEF7
:1005E0002D980C94930329982A982B982C98662779
:1005F000632FF0E0ECE4E60F649129982A982B9899
:100600002C986A0F6BB960FD589A60FF5898289A29
:1006100029982A982B982C98089528982A982B98EE
:100620002C98632FF0E0ECE4E60F649128982A9868
:100630002B982C986A0F6BB960FD589A60FF5898F8
:10064000299A28982A982B982C9808956627632F22
:10065000289829982B982C98F0E0ECE4E60F649108
:10066000289829982B982C986A0F6BB960FD589A96
:1006700060FF58982A9A289829982B982C980895C2
:10068000289829982A982C986627632F28982998C3
:100690002A982C98F0E0ECE4E60F649128982998C9
:1006A0002A982C986A0F6BB960FD589A60FF589889
:1006B000289829982A982C982B9A08952898299850
:1006C0002A982B986627632FF0E0ECE4E60F6491FC
:1006D000289829982A982B986A0F6BB960FD589A28
:1006E00060FF58982C9A289829982A982B98089552
:1006F00005E005BD03E606BD01E000936E00089528
:100700000F930FB70F9303E606BDA89A43950F9179
:100710000FBF0F9118951F931FB71F9320FF0C94C5
:100720006F010C947901D99A1F911FBF1F911895E1
:00000001FF
